:100000000C942A000C9434000C9434000C943400AA
:100010000C9434000C9434000C9434000C94340090
:100020000C9434000C9434000C9434000C94340080
:100030000C9434000C9434000C9434000C94340070
:100040000C9434000C9434000C9434000C94340060
:100050000C94340011241FBECFE5D4E0DEBFCDBF29
:100060000E94E6000C94ED000C9400009BB39F707E
:10007000282F207F922B9BBBD998DB9A0000DB981E
:1000800032E43A95F1F700C02BB32F7030E1839F33
:10009000C0011124822B8BBBDB9A0000DB9883EF1D
:1000A00091E00197F1F700C0000008959BB39F70A5
:1000B000282F207F922B9BBBD99ADB9A0000DB98DC
:1000C00032E43A95F1F700C02BB32F7030E1839FF3
:1000D000C0011124822B8BBBDB9A0000DB9883EFDD
:1000E00091E00197F1F700C0000008958FEF8ABBFF
:1000F00087E893E10197F1F700C0000083E30E94D5
:10010000360082E30E94360088E20E9436008CE0CE
:100110000E94360086E00E94360081E00E94360090
:1001200083EF91E00197F1F700C0000080E80C94A4
:100130003600CF93DF93EC018991882319F00E9458
:100140005600FACFDF91CF910895CF93DF93EA0164
:10015000811106C060316CF4862F8F70806807C0F3
:10016000813039F460312CF4862F8F70806C0E94BE
:100170003600CE01DF91CF910C94990081E00E946E
:10018000360083EF91E00197F1F700C0000080E8AE
:100190000C9436000895089510BC85E089B98AB1A1
:1001A00088618AB980B5866880BD08955D9BFECF61
:1001B0008CB908958BB18CB108951ABA1BBA17BACD
:1001C00018BA14BA15BA11BA12BA08950E94DD000D
:0E01D0000E9476000E94CC00FFCFF894FFCF73
:00000001FF
